{
  "_format": "hh-sol-artifact-1",
  "contractName": "LINProtocolEVM",
  "sourceName": "contracts/LINProtocolEVM.sol",
  "abi": [
    {
      "inputs": [],
      "stateMutability": "nonpayable",
      "type": "constructor"
    },
    {
      "anonymous": false,
      "inputs": [
        {
          "indexed": true,
          "internalType": "address",
          "name": "user",
          "type": "address"
        }
      ],
      "name": "AccountDeactivated",
      "type": "event"
    },
    {
      "anonymous": false,
      "inputs": [
        {
          "indexed": true,
          "internalType": "address",
          "name": "user",
          "type": "address"
        },
        {
          "indexed": false,
          "internalType": "uint256",
          "name": "flowDeposit",
          "type": "uint256"
        }
      ],
      "name": "AccountInitialized",
      "type": "event"
    },
    {
      "anonymous": false,
      "inputs": [
        {
          "indexed": true,
          "internalType": "address",
          "name": "user",
          "type": "address"
        }
      ],
      "name": "AccountReactivated",
      "type": "event"
    },
    {
      "anonymous": false,
      "inputs": [
        {
          "indexed": true,
          "internalType": "address",
          "name": "user",
          "type": "address"
        },
        {
          "indexed": false,
          "internalType": "uint256",
          "name": "amount",
          "type": "uint256"
        }
      ],
      "name": "FlowDepositAdded",
      "type": "event"
    },
    {
      "anonymous": false,
      "inputs": [
        {
          "indexed": true,
          "internalType": "address",
          "name": "user",
          "type": "address"
        },
        {
          "indexed": false,
          "internalType": "uint256",
          "name": "amount",
          "type": "uint256"
        }
      ],
      "name": "FlowDepositWithdrawn",
      "type": "event"
    },
    {
      "anonymous": false,
      "inputs": [
        {
          "indexed": true,
          "internalType": "string",
          "name": "txId",
          "type": "string"
        },
        {
          "indexed": true,
          "internalType": "address",
          "name": "signer",
          "type": "address"
        }
      ],
      "name": "InvalidSignature",
      "type": "event"
    },
    {
      "anonymous": false,
      "inputs": [
        {
          "indexed": true,
          "internalType": "address",
          "name": "user",
          "type": "address"
        },
        {
          "indexed": false,
          "internalType": "uint256",
          "name": "expectedNonce",
          "type": "uint256"
        },
        {
          "indexed": false,
          "internalType": "uint256",
          "name": "providedNonce",
          "type": "uint256"
        }
      ],
      "name": "NonceValidationFailed",
      "type": "event"
    },
    {
      "anonymous": false,
      "inputs": [
        {
          "indexed": true,
          "internalType": "string",
          "name": "batchId",
          "type": "string"
        },
        {
          "indexed": false,
          "internalType": "uint256",
          "name": "transactionCount",
          "type": "uint256"
        },
        {
          "indexed": true,
          "internalType": "address",
          "name": "submitter",
          "type": "address"
        }
      ],
      "name": "OfflineBatchProcessed",
      "type": "event"
    },
    {
      "anonymous": false,
      "inputs": [
        {
          "indexed": true,
          "internalType": "string",
          "name": "txId",
          "type": "string"
        },
        {
          "indexed": true,
          "internalType": "address",
          "name": "from",
          "type": "address"
        },
        {
          "indexed": true,
          "internalType": "address",
          "name": "to",
          "type": "address"
        },
        {
          "indexed": false,
          "internalType": "uint256",
          "name": "amount",
          "type": "uint256"
        }
      ],
      "name": "OfflineTransactionCreated",
      "type": "event"
    },
    {
      "anonymous": false,
      "inputs": [
        {
          "indexed": true,
          "internalType": "string",
          "name": "txId",
          "type": "string"
        },
        {
          "indexed": true,
          "internalType": "address",
          "name": "from",
          "type": "address"
        },
        {
          "indexed": true,
          "internalType": "address",
          "name": "to",
          "type": "address"
        },
        {
          "indexed": false,
          "internalType": "uint256",
          "name": "amount",
          "type": "uint256"
        }
      ],
      "name": "OfflineTransactionExecuted",
      "type": "event"
    },
    {
      "anonymous": false,
      "inputs": [
        {
          "indexed": true,
          "internalType": "string",
          "name": "txId",
          "type": "string"
        },
        {
          "indexed": true,
          "internalType": "address",
          "name": "from",
          "type": "address"
        },
        {
          "indexed": false,
          "internalType": "string",
          "name": "reason",
          "type": "string"
        }
      ],
      "name": "OfflineTransactionFailed",
      "type": "event"
    },
    {
      "anonymous": false,
      "inputs": [
        {
          "indexed": true,
          "internalType": "address",
          "name": "previousOwner",
          "type": "address"
        },
        {
          "indexed": true,
          "internalType": "address",
          "name": "newOwner",
          "type": "address"
        }
      ],
      "name": "OwnershipTransferred",
      "type": "event"
    },
    {
      "anonymous": false,
      "inputs": [
        {
          "indexed": true,
          "internalType": "address",
          "name": "user",
          "type": "address"
        }
      ],
      "name": "PublicKeyRegistered",
      "type": "event"
    },
    {
      "anonymous": false,
      "inputs": [
        {
          "indexed": true,
          "internalType": "string",
          "name": "txId",
          "type": "string"
        },
        {
          "indexed": true,
          "internalType": "address",
          "name": "attacker",
          "type": "address"
        }
      ],
      "name": "ReplayAttackDetected",
      "type": "event"
    },
    {
      "anonymous": false,
      "inputs": [
        {
          "indexed": true,
          "internalType": "string",
          "name": "txId",
          "type": "string"
        },
        {
          "indexed": false,
          "internalType": "uint256",
          "name": "expiryTime",
          "type": "uint256"
        }
      ],
      "name": "TransactionExpired",
      "type": "event"
    },
    {
      "inputs": [],
      "name": "AUTO_REFILL_THRESHOLD",
      "outputs": [
        {
          "internalType": "uint256",
          "name": "",
          "type": "uint256"
        }
      ],
      "stateMutability": "view",
      "type": "function"
    },
    {
      "inputs": [],
      "name": "BASE_TRANSACTION_FEE",
      "outputs": [
        {
          "internalType": "uint256",
          "name": "",
          "type": "uint256"
        }
      ],
      "stateMutability": "view",
      "type": "function"
    },
    {
      "inputs": [],
      "name": "MAX_BATCH_SIZE",
      "outputs": [
        {
          "internalType": "uint256",
          "name": "",
          "type": "uint256"
        }
      ],
      "stateMutability": "view",
      "type": "function"
    },
    {
      "inputs": [],
      "name": "MAX_NONCE_SKIP",
      "outputs": [
        {
          "internalType": "uint256",
          "name": "",
          "type": "uint256"
        }
      ],
      "stateMutability": "view",
      "type": "function"
    },
    {
      "inputs": [],
      "name": "MAX_SIGNATURE_LENGTH",
      "outputs": [
        {
          "internalType": "uint256",
          "name": "",
          "type": "uint256"
        }
      ],
      "stateMutability": "view",
      "type": "function"
    },
    {
      "inputs": [],
      "name": "MAX_TRANSACTION_AMOUNT",
      "outputs": [
        {
          "internalType": "uint256",
          "name": "",
          "type": "uint256"
        }
      ],
      "stateMutability": "view",
      "type": "function"
    },
    {
      "inputs": [],
      "name": "MINIMUM_FLOW_DEPOSIT",
      "outputs": [
        {
          "internalType": "uint256",
          "name": "",
          "type": "uint256"
        }
      ],
      "stateMutability": "view",
      "type": "function"
    },
    {
      "inputs": [],
      "name": "MIN_SIGNATURE_LENGTH",
      "outputs": [
        {
          "internalType": "uint256",
          "name": "",
          "type": "uint256"
        }
      ],
      "stateMutability": "view",
      "type": "function"
    },
    {
      "inputs": [],
      "name": "TRANSACTION_EXPIRY_SECONDS",
      "outputs": [
        {
          "internalType": "uint256",
          "name": "",
          "type": "uint256"
        }
      ],
      "stateMutability": "view",
      "type": "function"
    },
    {
      "inputs": [],
      "name": "TRANSACTION_VALIDITY_HOURS",
      "outputs": [
        {
          "internalType": "uint256",
          "name": "",
          "type": "uint256"
        }
      ],
      "stateMutability": "view",
      "type": "function"
    },
    {
      "inputs": [],
      "name": "addFlowDeposit",
      "outputs": [],
      "stateMutability": "payable",
      "type": "function"
    },
    {
      "inputs": [],
      "name": "deactivateAccount",
      "outputs": [],
      "stateMutability": "nonpayable",
      "type": "function"
    },
    {
      "inputs": [],
      "name": "emergencyWithdraw",
      "outputs": [],
      "stateMutability": "nonpayable",
      "type": "function"
    },
    {
      "inputs": [
        {
          "internalType": "address",
          "name": "from",
          "type": "address"
        },
        {
          "internalType": "address",
          "name": "to",
          "type": "address"
        },
        {
          "internalType": "uint256",
          "name": "nonce",
          "type": "uint256"
        },
        {
          "internalType": "uint256",
          "name": "timestamp",
          "type": "uint256"
        }
      ],
      "name": "generateTransactionId",
      "outputs": [
        {
          "internalType": "string",
          "name": "",
          "type": "string"
        }
      ],
      "stateMutability": "pure",
      "type": "function"
    },
    {
      "inputs": [
        {
          "internalType": "address",
          "name": "user",
          "type": "address"
        }
      ],
      "name": "getBalance",
      "outputs": [
        {
          "internalType": "uint256",
          "name": "",
          "type": "uint256"
        }
      ],
      "stateMutability": "view",
      "type": "function"
    },
    {
      "inputs": [
        {
          "internalType": "address",
          "name": "user",
          "type": "address"
        }
      ],
      "name": "getDepositBalance",
      "outputs": [
        {
          "internalType": "uint256",
          "name": "",
          "type": "uint256"
        }
      ],
      "stateMutability": "view",
      "type": "function"
    },
    {
      "inputs": [
        {
          "internalType": "address",
          "name": "user",
          "type": "address"
        }
      ],
      "name": "getUserAccount",
      "outputs": [
        {
          "components": [
            {
              "internalType": "uint256",
              "name": "balance",
              "type": "uint256"
            },
            {
              "internalType": "uint256",
              "name": "flowDeposit",
              "type": "uint256"
            },
            {
              "internalType": "uint256",
              "name": "nonce",
              "type": "uint256"
            },
            {
              "internalType": "uint256",
              "name": "lastSyncTime",
              "type": "uint256"
            },
            {
              "internalType": "bool",
              "name": "isActive",
              "type": "bool"
            },
            {
              "internalType": "address",
              "name": "publicKeyAddress",
              "type": "address"
            }
          ],
          "internalType": "struct LINProtocolEVM.UserAccount",
          "name": "",
          "type": "tuple"
        }
      ],
      "stateMutability": "view",
      "type": "function"
    },
    {
      "inputs": [
        {
          "internalType": "address",
          "name": "user",
          "type": "address"
        }
      ],
      "name": "getUserNonce",
      "outputs": [
        {
          "internalType": "uint256",
          "name": "",
          "type": "uint256"
        }
      ],
      "stateMutability": "view",
      "type": "function"
    },
    {
      "inputs": [],
      "name": "initializeAccount",
      "outputs": [],
      "stateMutability": "payable",
      "type": "function"
    },
    {
      "inputs": [
        {
          "internalType": "uint256",
          "name": "timestamp",
          "type": "uint256"
        }
      ],
      "name": "isTransactionExpired",
      "outputs": [
        {
          "internalType": "bool",
          "name": "",
          "type": "bool"
        }
      ],
      "stateMutability": "view",
      "type": "function"
    },
    {
      "inputs": [
        {
          "internalType": "string",
          "name": "txId",
          "type": "string"
        }
      ],
      "name": "isTransactionProcessed",
      "outputs": [
        {
          "internalType": "bool",
          "name": "",
          "type": "bool"
        }
      ],
      "stateMutability": "view",
      "type": "function"
    },
    {
      "inputs": [
        {
          "internalType": "address",
          "name": "user",
          "type": "address"
        }
      ],
      "name": "isUserActive",
      "outputs": [
        {
          "internalType": "bool",
          "name": "",
          "type": "bool"
        }
      ],
      "stateMutability": "view",
      "type": "function"
    },
    {
      "inputs": [],
      "name": "owner",
      "outputs": [
        {
          "internalType": "address",
          "name": "",
          "type": "address"
        }
      ],
      "stateMutability": "view",
      "type": "function"
    },
    {
      "inputs": [
        {
          "internalType": "string",
          "name": "txId",
          "type": "string"
        }
      ],
      "name": "preventReplay",
      "outputs": [
        {
          "internalType": "bool",
          "name": "",
          "type": "bool"
        }
      ],
      "stateMutability": "view",
      "type": "function"
    },
    {
      "inputs": [
        {
          "internalType": "string",
          "name": "",
          "type": "string"
        }
      ],
      "name": "processedTransactions",
      "outputs": [
        {
          "internalType": "bool",
          "name": "",
          "type": "bool"
        }
      ],
      "stateMutability": "view",
      "type": "function"
    },
    {
      "inputs": [],
      "name": "reactivateAccount",
      "outputs": [],
      "stateMutability": "nonpayable",
      "type": "function"
    },
    {
      "inputs": [
        {
          "internalType": "address",
          "name": "",
          "type": "address"
        }
      ],
      "name": "registeredUsers",
      "outputs": [
        {
          "internalType": "bool",
          "name": "",
          "type": "bool"
        }
      ],
      "stateMutability": "view",
      "type": "function"
    },
    {
      "inputs": [],
      "name": "renounceOwnership",
      "outputs": [],
      "stateMutability": "nonpayable",
      "type": "function"
    },
    {
      "inputs": [
        {
          "components": [
            {
              "internalType": "string",
              "name": "batchId",
              "type": "string"
            },
            {
              "internalType": "address",
              "name": "submitter",
              "type": "address"
            },
            {
              "components": [
                {
                  "internalType": "string",
                  "name": "id",
                  "type": "string"
                },
                {
                  "internalType": "address",
                  "name": "from",
                  "type": "address"
                },
                {
                  "internalType": "address",
                  "name": "to",
                  "type": "address"
                },
                {
                  "internalType": "uint256",
                  "name": "amount",
                  "type": "uint256"
                },
                {
                  "internalType": "uint256",
                  "name": "timestamp",
                  "type": "uint256"
                },
                {
                  "internalType": "uint256",
                  "name": "nonce",
                  "type": "uint256"
                },
                {
                  "internalType": "bytes",
                  "name": "signature",
                  "type": "bytes"
                },
                {
                  "internalType": "enum LINProtocolEVM.TransactionStatus",
                  "name": "status",
                  "type": "uint8"
                }
              ],
              "internalType": "struct LINProtocolEVM.OfflineTransaction[]",
              "name": "transactions",
              "type": "tuple[]"
            },
            {
              "internalType": "uint256",
              "name": "timestamp",
              "type": "uint256"
            },
            {
              "internalType": "uint256",
              "name": "flowUsed",
              "type": "uint256"
            }
          ],
          "internalType": "struct LINProtocolEVM.TransactionBatch",
          "name": "batch",
          "type": "tuple"
        }
      ],
      "name": "syncOfflineTransactions",
      "outputs": [
        {
          "internalType": "bool",
          "name": "",
          "type": "bool"
        }
      ],
      "stateMutability": "nonpayable",
      "type": "function"
    },
    {
      "inputs": [],
      "name": "totalFlowDeposited",
      "outputs": [
        {
          "internalType": "uint256",
          "name": "",
          "type": "uint256"
        }
      ],
      "stateMutability": "view",
      "type": "function"
    },
    {
      "inputs": [],
      "name": "totalTransactions",
      "outputs": [
        {
          "internalType": "uint256",
          "name": "",
          "type": "uint256"
        }
      ],
      "stateMutability": "view",
      "type": "function"
    },
    {
      "inputs": [],
      "name": "totalUsers",
      "outputs": [
        {
          "internalType": "uint256",
          "name": "",
          "type": "uint256"
        }
      ],
      "stateMutability": "view",
      "type": "function"
    },
    {
      "inputs": [
        {
          "internalType": "address",
          "name": "newOwner",
          "type": "address"
        }
      ],
      "name": "transferOwnership",
      "outputs": [],
      "stateMutability": "nonpayable",
      "type": "function"
    },
    {
      "inputs": [
        {
          "internalType": "address",
          "name": "user",
          "type": "address"
        },
        {
          "internalType": "uint256",
          "name": "newBalance",
          "type": "uint256"
        }
      ],
      "name": "updateBalance",
      "outputs": [],
      "stateMutability": "nonpayable",
      "type": "function"
    },
    {
      "inputs": [
        {
          "internalType": "address",
          "name": "",
          "type": "address"
        }
      ],
      "name": "userAccounts",
      "outputs": [
        {
          "internalType": "uint256",
          "name": "balance",
          "type": "uint256"
        },
        {
          "internalType": "uint256",
          "name": "flowDeposit",
          "type": "uint256"
        },
        {
          "internalType": "uint256",
          "name": "nonce",
          "type": "uint256"
        },
        {
          "internalType": "uint256",
          "name": "lastSyncTime",
          "type": "uint256"
        },
        {
          "internalType": "bool",
          "name": "isActive",
          "type": "bool"
        },
        {
          "internalType": "address",
          "name": "publicKeyAddress",
          "type": "address"
        }
      ],
      "stateMutability": "view",
      "type": "function"
    },
    {
      "inputs": [
        {
          "internalType": "address",
          "name": "user",
          "type": "address"
        },
        {
          "internalType": "uint256",
          "name": "providedNonce",
          "type": "uint256"
        }
      ],
      "name": "validateNonce",
      "outputs": [
        {
          "internalType": "bool",
          "name": "",
          "type": "bool"
        }
      ],
      "stateMutability": "view",
      "type": "function"
    },
    {
      "inputs": [
        {
          "components": [
            {
              "internalType": "string",
              "name": "id",
              "type": "string"
            },
            {
              "internalType": "address",
              "name": "from",
              "type": "address"
            },
            {
              "internalType": "address",
              "name": "to",
              "type": "address"
            },
            {
              "internalType": "uint256",
              "name": "amount",
              "type": "uint256"
            },
            {
              "internalType": "uint256",
              "name": "timestamp",
              "type": "uint256"
            },
            {
              "internalType": "uint256",
              "name": "nonce",
              "type": "uint256"
            },
            {
              "internalType": "bytes",
              "name": "signature",
              "type": "bytes"
            },
            {
              "internalType": "enum LINProtocolEVM.TransactionStatus",
              "name": "status",
              "type": "uint8"
            }
          ],
          "internalType": "struct LINProtocolEVM.OfflineTransaction",
          "name": "transaction",
          "type": "tuple"
        }
      ],
      "name": "validateSignature",
      "outputs": [
        {
          "internalType": "bool",
          "name": "",
          "type": "bool"
        }
      ],
      "stateMutability": "view",
      "type": "function"
    },
    {
      "inputs": [
        {
          "internalType": "uint256",
          "name": "amount",
          "type": "uint256"
        }
      ],
      "name": "withdrawFlowDeposit",
      "outputs": [],
      "stateMutability": "nonpayable",
      "type": "function"
    },
    {
      "stateMutability": "payable",
      "type": "receive"
    }
  ],
  "bytecode": "0x608060405234801561001057600080fd5b50600160005561001f33610033565b600060028190556003819055600455610085565b600180546001600160a01b038381166001600160a01b0319831681179093556040519116919082907f8be0079c531659141344cd1fd0a4f28419497f9722a3daafe3b4186f6b6457e090600090a35050565b61254e806100946000396000f3fe6080604052600436106102295760003560e01c80639ee20b1511610123578063e040e9a0116100ab578063f2fde38b1161006f578063f2fde38b146106bc578063f3d374e5146106dc578063f896c48d146106f7578063f8b2cb4f14610715578063fb47e0161461074b57600080fd5b8063e040e9a014610626578063e0b1cccb1461063b578063e3e847591461065b578063ed05ae781461067b578063ee1c6d6f146106b457600080fd5b8063bf7f6f7b116100f2578063bf7f6f7b146105b0578063bff1f9e1146105c6578063cfdbf254146105dc578063d2952b33146105f1578063db2e21bc1461061157600080fd5b80639ee20b1514610522578063a7865c221461055e578063aa6ac1bb1461057e578063b9a600381461059a57600080fd5b80636834e3a8116101b15780638cc8a855116101755780638cc8a855146104565780638da5cb5b1461048357806390b763f5146104ab5780639181b381146104c75780639ea32844146104e757600080fd5b80636834e3a8146103a8578063715018a6146103e157806380fb1041146103f657806385dfb78d14610416578063872589821461043657600080fd5b80635251d91c116101f85780635251d91c146102c8578063569915601461035d5780635bbf11b21461037257806361512355146103895780636714cfcd1461039157600080fd5b80630e50cee514610235578063131403241461027a5780631d97cea21461029d57806352091e9d146102b357600080fd5b3661023057005b600080fd5b34801561024157600080fd5b50610265610250366004611eac565b60076020526000908152604090205460ff1681565b60405190151581526020015b60405180910390f35b34801561028657600080fd5b5061028f600a81565b604051908152602001610271565b3480156102a957600080fd5b5061028f61010081565b3480156102bf57600080fd5b5061028f601881565b3480156102d457600080fd5b506103256102e3366004611eac565b600660205260009081526040902080546001820154600283015460038401546004909401549293919290919060ff81169061010090046001600160a01b031686565b604080519687526020870195909552938501929092526060840152151560808301526001600160a01b031660a082015260c001610271565b34801561036957600080fd5b5061028f604081565b34801561037e57600080fd5b506103876107bd565b005b61038761083f565b34801561039d57600080fd5b5061028f6201518081565b3480156103b457600080fd5b5061028f6103c3366004611eac565b6001600160a01b031660009081526006602052604090206002015490565b3480156103ed57600080fd5b506103876109e2565b34801561040257600080fd5b50610265610411366004611ece565b6109f6565b34801561042257600080fd5b50610265610431366004611ffc565b610a4a565b34801561044257600080fd5b50610265610451366004611ffc565b610a76565b34801561046257600080fd5b50610476610471366004612039565b610aa1565b604051610271919061209f565b34801561048f57600080fd5b506001546040516001600160a01b039091168152602001610271565b3480156104b757600080fd5b5061028f678ac7230489e8000081565b3480156104d357600080fd5b506102656104e23660046121a2565b610af3565b3480156104f357600080fd5b50610265610502366004611ffc565b805160208183018101805160058252928201919093012091525460ff1681565b34801561052e57600080fd5b5061026561053d366004611eac565b6001600160a01b031660009081526006602052604090206004015460ff1690565b34801561056a57600080fd5b506103876105793660046122d9565b610d9e565b34801561058a57600080fd5b5061028f670de0b6b3a764000081565b3480156105a657600080fd5b5061028f60035481565b3480156105bc57600080fd5b5061028f60045481565b3480156105d257600080fd5b5061028f60025481565b3480156105e857600080fd5b5061028f606481565b3480156105fd57600080fd5b5061026561060c3660046122f2565b610edb565b34801561061d57600080fd5b50610387610fa2565b34801561063257600080fd5b50610387610fe3565b34801561064757600080fd5b50610387610656366004611ece565b611059565b34801561066757600080fd5b506102656106763660046122d9565b6110b5565b34801561068757600080fd5b5061028f610696366004611eac565b6001600160a01b031660009081526006602052604090206001015490565b6103876110cc565b3480156106c857600080fd5b506103876106d7366004611eac565b6111c5565b3480156106e857600080fd5b5061028f66038d7ea4c6800081565b34801561070357600080fd5b5061028f69d3c21bcecceda100000081565b34801561072157600080fd5b5061028f610730366004611eac565b6001600160a01b031660009081526006602052604090205490565b34801561075757600080fd5b5061076b610766366004611eac565b61123b565b60405161027191908151815260208083015190820152604080830151908201526060808301519082015260808083015115159082015260a0918201516001600160a01b03169181019190915260c00190565b3360009081526007602052604090205460ff166107f55760405162461bcd60e51b81526004016107ec90612327565b60405180910390fd5b3360008181526006602052604080822060048101805460ff1916600117905590519092917fe59051bfc78cdbcab6d5743d762e138b550c6c7c41db05ee5d0812ba1be1176c91a250565b604080518082019091526014815273125394d551919250d251539517d1115413d4d25560621b6020820152678ac7230489e800003410156108935760405162461bcd60e51b81526004016107ec919061209f565b503360009081526007602052604090205460ff16156108f45760405162461bcd60e51b815260206004820152601b60248201527f4163636f756e7420616c726561647920696e697469616c697a6564000000000060448201526064016107ec565b3360008181526006602090815260408083208381553460018083019190915560028083018690554260038401556004830180546001600160a81b0319166101009098029790971782179096556007909352908320805460ff191690921790915582549092909161096383612374565b9190505550346004600082825461097a919061238d565b909155505060405134815233907fc1198a528005505a85eab8ca5fbe6e28bd63a1d7183f8cef8aae6d79eb773ea49060200160405180910390a260405133907ffa3256bc03b03ee751ee91c53b7318d6e4321ab4d09757c08a50a3f65f67830090600090a250565b6109ea6112ec565b6109f46000611346565b565b6001600160a01b03821660009081526006602052604081206002810154610a1e81600161238d565b841480610a3f57508084118015610a3f5750610a3b600a8261238d565b8411155b925050505b92915050565b6000600582604051610a5c91906123a0565b9081526040519081900360200190205460ff161592915050565b6000600582604051610a8891906123a0565b9081526040519081900360200190205460ff1692915050565b6060610aac85611398565b610ab585611398565b610abe85611583565b610ac785611583565b604051602001610ada94939291906123bc565b6040516020818303038152906040529050949350505050565b6000610afd6116a6565b600082604001515111610b4a5760405162461bcd60e51b815260206004820152601560248201527442617463682063616e6e6f7420626520656d70747960581b60448201526064016107ec565b606482604001515111156040518060400160405280600f81526020016e42415443485f544f4f5f4c4152474560881b81525090610b9a5760405162461bcd60e51b81526004016107ec919061209f565b503360009081526007602052604090205460ff16610bca5760405162461bcd60e51b81526004016107ec90612327565b3360009081526006602090815260409182902060048101548351808501909452601084526f4143434f554e545f494e41435449564560801b92840192909252919060ff16610c2b5760405162461bcd60e51b81526004016107ec919061209f565b5060008066038d7ea4c68000856040015151610c479190612434565b9050808360010154101560405180604001604052806014815260200173125394d551919250d251539517d1115413d4d25560621b81525090610c9c5760405162461bcd60e51b81526004016107ec919061209f565b5060005b856040015151811015610cfe57600086604001518281518110610cc557610cc561244b565b60200260200101519050610cd8816116ff565b15610ceb5783610ce781612374565b9450505b5080610cf681612374565b915050610ca0565b5080836001016000828254610d139190612461565b925050819055504283600301819055508160036000828254610d35919061238d565b909155505084516040513391610d4a916123a0565b604051908190038120848252907f36541ccef74160a9d6459e916ad4c749a5873c1b3f94e241349691a1282dd08a9060200160405180910390a35060408401515114915050610d996001600055565b919050565b610da66116a6565b3360009081526007602052604090205460ff16610dd55760405162461bcd60e51b81526004016107ec90612327565b3360009081526006602052604090206001810154821115610e385760405162461bcd60e51b815260206004820152601c60248201527f496e73756666696369656e74206465706f7369742062616c616e63650000000060448201526064016107ec565b81816001016000828254610e4c9190612461565b925050819055508160046000828254610e659190612461565b9091555050604051339083156108fc029084906000818181858888f19350505050158015610e97573d6000803e3d6000fd5b5060405182815233907f46fc0d7cfcd0c40f5af7c578ecd61690835a300a7ae940af72bca3c73bdbdcdd9060200160405180910390a250610ed86001600055565b50565b600080826000015183602001518460400151856060015186608001518760a00151604051602001610f1196959493929190612474565b6040516020818303038152906040528051906020012090506000610f62827f19457468657265756d205369676e6564204d6573736167653a0a3332000000006000908152601c91909152603c902090565b90506000610f7d8560c0015183611c1e90919063ffffffff16565b905084602001516001600160a01b0316816001600160a01b0316149350505050919050565b610faa6112ec565b6001546040516001600160a01b03909116904780156108fc02916000818181858888f19350505050158015610ed8573d6000803e3d6000fd5b3360009081526007602052604090205460ff166110125760405162461bcd60e51b81526004016107ec90612327565b3360008181526006602052604080822060048101805460ff1916905590519092917f21831c2238658baa66ab1895cb18bdeaf2bea535a3df6126b7ada3842574837591a250565b6110616112ec565b6001600160a01b03821660009081526007602052604090205460ff166110995760405162461bcd60e51b81526004016107ec90612327565b6001600160a01b03909116600090815260066020526040902055565b60006110c4620151808361238d565b421192915050565b3360009081526007602052604090205460ff166110fb5760405162461bcd60e51b81526004016107ec90612327565b6000341161114b5760405162461bcd60e51b815260206004820152601e60248201527f4465706f736974206d7573742062652067726561746572207468616e2030000060448201526064016107ec565b3360009081526006602052604081206001810180549192349261116f90849061238d565b925050819055503460046000828254611188919061238d565b909155505060405134815233907f2bbdfebdd4692534b933dc211e6db14cdc1feaf55813f7353982d9c0f88b20d19060200160405180910390a250565b6111cd6112ec565b6001600160a01b0381166112325760405162461bcd60e51b815260206004820152602660248201527f4f776e61626c653a206e6577206f776e657220697320746865207a65726f206160448201526564647265737360d01b60648201526084016107ec565b610ed881611346565b61127f6040518060c001604052806000815260200160008152602001600081526020016000815260200160001515815260200160006001600160a01b031681525090565b506001600160a01b03908116600090815260066020908152604091829020825160c081018452815481526001820154928101929092526002810154928201929092526003820154606082015260049091015460ff811615156080830152610100900490911660a082015290565b6001546001600160a01b031633146109f45760405162461bcd60e51b815260206004820181905260248201527f4f776e61626c653a2063616c6c6572206973206e6f7420746865206f776e657260448201526064016107ec565b600180546001600160a01b038381166001600160a01b0319831681179093556040519116919082907f8be0079c531659141344cd1fd0a4f28419497f9722a3daafe3b4186f6b6457e090600090a35050565b604080518082018252601081526f181899199a1a9b1b9c1cb0b131b232b360811b60208201528151602a80825260608281019094526001600160a01b0385169291600091602082018180368337019050509050600360fc1b816000815181106114035761140361244b565b60200101906001600160f81b031916908160001a905350600f60fb1b816001815181106114325761143261244b565b60200101906001600160f81b031916908160001a90535060005b601481101561157a578260048561146484600c61238d565b602081106114745761147461244b565b1a60f81b6001600160f81b031916901c60f81c60ff168151811061149a5761149a61244b565b01602001516001600160f81b031916826114b5836002612434565b6114c090600261238d565b815181106114d0576114d061244b565b60200101906001600160f81b031916908160001a90535082846114f483600c61238d565b602081106115045761150461244b565b825191901a600f1690811061151b5761151b61244b565b01602001516001600160f81b03191682611536836002612434565b61154190600361238d565b815181106115515761155161244b565b60200101906001600160f81b031916908160001a9053508061157281612374565b91505061144c565b50949350505050565b6060816000036115aa5750506040805180820190915260018152600360fc1b602082015290565b8160005b81156115d457806115be81612374565b91506115cd9050600a836124c7565b91506115ae565b60008167ffffffffffffffff8111156115ef576115ef611ef8565b6040519080825280601f01601f191660200182016040528015611619576020820181803683370190505b509050815b851561157a5761162f600182612461565b9050600061163e600a886124c7565b61164990600a612434565b6116539088612461565b61165e9060306124e9565b905060008160f81b90508084848151811061167b5761167b61244b565b60200101906001600160f81b031916908160001a90535061169d600a896124c7565b9750505061161e565b6002600054036116f85760405162461bcd60e51b815260206004820152601f60248201527f5265656e7472616e637947756172643a207265656e7472616e742063616c6c0060448201526064016107ec565b6002600055565b600061170e8260000151610a4a565b61176a5781602001516001600160a01b0316826000015160405161173291906123a0565b604051908190038120907f722ca83f0a65db95b06ee4259078e523047df2b111ea822960c238e8399adf4090600090a3506000919050565b61177782608001516110b5565b156117e157815160405161178b91906123a0565b60405180910390207fe293ccd9cb405ace405e007a11146613ba7c30053031f1bfcab7835fd40defc96201518084608001516117c7919061238d565b6040519081526020015b60405180910390a2506000919050565b6117ea82610edb565b6118465781602001516001600160a01b0316826000015160405161180e91906123a0565b604051908190038120907f60ccf76df2286c8941905ae85806ee6f9c3436f7ad4e62bee81fd75d0aa5cfc690600090a3506000919050565b6020808301516001600160a01b031660009081526007909152604090205460ff16158061189457506020808301516001600160a01b031660009081526006909152604090206004015460ff16155b156119285781602001516001600160a01b031682600001516040516118b991906123a0565b60405180910390207f397a2b8f5c483926a6586bce8f78c0c8ae5f7f49cd55d26276be153e11d78c716040518060400160405280601081526020016f4143434f554e545f494e41435449564560801b815250604051611918919061209f565b60405180910390a3506000919050565b6040808301516001600160a01b031660009081526007602052205460ff166119d15781602001516001600160a01b0316826000015160405161196a91906123a0565b60405180910390207f397a2b8f5c483926a6586bce8f78c0c8ae5f7f49cd55d26276be153e11d78c71604051611918906020808252601b908201527f526563697069656e74206163636f756e74206e6f7420666f756e640000000000604082015260600190565b6119e382602001518360a001516109f6565b611a50576020808301516001600160a01b0316600081815260069092526040909120600201547f64fbbaec62cea694572bdf86e467b94ca848d5cdc8523678b854b0f5191ab1eb90611a3690600161238d565b60a0850151604080519283526020830191909152016117d1565b6020808301516001600160a01b03166000908152600690915260409020606083015181541015611b0e5782602001516001600160a01b03168360000151604051611a9a91906123a0565b60405180910390207f397a2b8f5c483926a6586bce8f78c0c8ae5f7f49cd55d26276be153e11d78c7160405180604001604052806014815260200173494e53554646494349454e545f42414c414e434560601b815250604051611afd919061209f565b60405180910390a350600092915050565b6040808401516001600160a01b0316600090815260066020529081206060850151835491929091849190611b43908490612461565b9091555050606084015181548290600090611b5f90849061238d565b909155505060a084015160028301558351604051600191600591611b8391906123a0565b908152602001604051809103902060006101000a81548160ff02191690831515021790555083604001516001600160a01b031684602001516001600160a01b03168560000151604051611bd691906123a0565b60405190819003812060608801518252907f6e20b006afc7716e2bca7136e119a3ddccd062472994a928927e622edf44e9ed9060200160405180910390a45060019392505050565b6000806000611c2d8585611c42565b91509150611c3a81611c87565b509392505050565b6000808251604103611c785760208301516040840151606085015160001a611c6c87828585611dd1565b94509450505050611c80565b506000905060025b9250929050565b6000816004811115611c9b57611c9b612502565b03611ca35750565b6001816004811115611cb757611cb7612502565b03611d045760405162461bcd60e51b815260206004820152601860248201527f45434453413a20696e76616c6964207369676e6174757265000000000000000060448201526064016107ec565b6002816004811115611d1857611d18612502565b03611d655760405162461bcd60e51b815260206004820152601f60248201527f45434453413a20696e76616c6964207369676e6174757265206c656e6774680060448201526064016107ec565b6003816004811115611d7957611d79612502565b03610ed85760405162461bcd60e51b815260206004820152602260248201527f45434453413a20696e76616c6964207369676e6174757265202773272076616c604482015261756560f01b60648201526084016107ec565b6000807f7fffffffffffffffffffffffffffffff5d576e7357a4501ddfe92f46681b20a0831115611e085750600090506003611e8c565b6040805160008082526020820180845289905260ff881692820192909252606081018690526080810185905260019060a0016020604051602081039080840390855afa158015611e5c573d6000803e3d6000fd5b5050604051601f1901519150506001600160a01b038116611e8557600060019250925050611e8c565b9150600090505b94509492505050565b80356001600160a01b0381168114610d9957600080fd5b600060208284031215611ebe57600080fd5b611ec782611e95565b9392505050565b60008060408385031215611ee157600080fd5b611eea83611e95565b946020939093013593505050565b634e487b7160e01b600052604160045260246000fd5b604051610100810167ffffffffffffffff81118282101715611f3257611f32611ef8565b60405290565b60405160a0810167ffffffffffffffff81118282101715611f3257611f32611ef8565b604051601f8201601f1916810167ffffffffffffffff81118282101715611f8457611f84611ef8565b604052919050565b600082601f830112611f9d57600080fd5b813567ffffffffffffffff811115611fb757611fb7611ef8565b611fca601f8201601f1916602001611f5b565b818152846020838601011115611fdf57600080fd5b816020850160208301376000918101602001919091529392505050565b60006020828403121561200e57600080fd5b813567ffffffffffffffff81111561202557600080fd5b61203184828501611f8c565b949350505050565b6000806000806080858703121561204f57600080fd5b61205885611e95565b935061206660208601611e95565b93969395505050506040820135916060013590565b60005b8381101561209657818101518382015260200161207e565b50506000910152565b60208152600082518060208401526120be81604085016020870161207b565b601f01601f19169190910160400192915050565b803560048110610d9957600080fd5b600061010082840312156120f457600080fd5b6120fc611f0e565b9050813567ffffffffffffffff8082111561211657600080fd5b61212285838601611f8c565b835261213060208501611e95565b602084015261214160408501611e95565b6040840152606084013560608401526080840135608084015260a084013560a084015260c084013591508082111561217857600080fd5b5061218584828501611f8c565b60c08301525061219760e083016120d2565b60e082015292915050565b600060208083850312156121b557600080fd5b823567ffffffffffffffff808211156121cd57600080fd5b9084019060a082870312156121e157600080fd5b6121e9611f38565b8235828111156121f857600080fd5b61220488828601611f8c565b825250612212848401611e95565b8482015260408301358281111561222857600080fd5b8301601f8101881361223957600080fd5b80358381111561224b5761224b611ef8565b8060051b61225a878201611f5b565b918252828101870191878101908b84111561227457600080fd5b88850192505b838310156122b0578235878111156122925760008081fd5b6122a08d8b838901016120e1565b835250918801919088019061227a565b604086015250505050606083810135908201526080928301359281019290925250949350505050565b6000602082840312156122eb57600080fd5b5035919050565b60006020828403121561230457600080fd5b813567ffffffffffffffff81111561231b57600080fd5b612031848285016120e1565b60208082526017908201527f4163636f756e74206e6f7420696e697469616c697a6564000000000000000000604082015260600190565b634e487b7160e01b600052601160045260246000fd5b6000600182016123865761238661235e565b5060010190565b80820180821115610a4457610a4461235e565b600082516123b281846020870161207b565b9190910192915050565b600085516123ce818460208a0161207b565b8083019050602d60f81b80825286516123ee816001850160208b0161207b565b60019201918201819052855161240b816002850160208a0161207b565b6002920191820152835161242681600384016020880161207b565b016003019695505050505050565b8082028115828204841417610a4457610a4461235e565b634e487b7160e01b600052603260045260246000fd5b81810381811115610a4457610a4461235e565b60008751612486818460208c0161207b565b6bffffffffffffffffffffffff19606098891b8116919093019081529590961b16601485015260288401929092526048830152606882015260880192915050565b6000826124e457634e487b7160e01b600052601260045260246000fd5b500490565b60ff8181168382160190811115610a4457610a4461235e565b634e487b7160e01b600052602160045260246000fdfea26469706673582212207b18cfa2f2d0985f145fa3c9aeadbe466105aba4dbe22dad30e73bd02b41dd6464736f6c63430008130033",
  "linkReferences": {},
  "deployedLinkReferences": {}
}